:020000040800F2
:10000000F0070020B9030008650200086702000835
:10001000690200086B0200086D0200080000000081
:100020000000000000000000000000006F02000857
:100030007102000800000000730200087502000849
:1000400077020008770200087702000877020008AC
:10005000770200087702000877020008770200089C
:10006000770200087702000877020008770200088C
:10007000770200087702000877020008770200087C
:10008000770200087702000877020008770200086C
:10009000770200087702000877020008770200085C
:1000A000770200087702000877020008770200084C
:1000B000770200087702000877020008770200083C
:1000C000770200087702000877020008770200082C
:1000D000770200081D040008770200087702000874
:1000E000770200087702000877020008770200080C
:1000F00077020008770200087702000877020008FC
:100100007702000877020008D90300087702000888
:10011000770200087702000877020008F103000860
:1001200077020008770200087702000877020008CB
:1001300077020008770200087702000877020008BB
:1001400077020008770200087702000877020008AB
:10015000770200087702000877020008770200089B
:10016000770200087702000877020008770200088B
:10017000770200087702000877020008770200087B
:10018000770200087702000877020008770200086B
:1001900077020008000000007702000877020008DC
:1001A000770200087702000877020008770200084B
:1001B000770200087702000877020008770200083B
:1001C000770200087702000877020008770200082B
:1001D000770200087702000800F002F800F02EF81D
:1001E0000AA090E8000C82448344AAF10107DA4592
:1001F00001D100F023F8AFF2090EBAE80F0013F0B6
:10020000010F18BFFB1A43F001031847D80B000079
:10021000E80B00000023002400250026103A28BF28
:1002200078C1FBD8520728BF30C148BF0B60704768
:100230001FB500F0ADFD1FBD10B510BD00F058F8A2
:100240001146FFF7F5FF00F0BDFC00F076F803B4AF
:10025000FFF7F2FF03BC00F07DF80000094880477B
:1002600009480047FEE7FEE7FEE7FEE7FEE7FEE798
:10027000FEE7FEE7FEE7FEE704480549054A064BB0
:1002800070470000BD030008D9010008F0010020FC
:10029000F0070020F0030020F00300204FF00002E0
:1002A00000B5134694469646203922BFA0E80C506C
:1002B000A0E80C50B1F12001BFF4F7AF090728BF47
:1002C000A0E80C5048BF0CC05DF804EB890028BFC3
:1002D00040F8042B08BF704748BF20F8022B11F0EC
:1002E000804F18BF00F8012B704770477047704768
:1002F000754600F02BF8AE4605006946534620F0DF
:100300000700854618B020B5FFF7B6FFBDE82040CE
:100310004FF000064FF000074FF000084FF0000BC1
:10032000AC46ACE8C009ACE8C009ACE8C009ACE830
:10033000C00921F007018D46704710B50446AFF3A0
:1003400000802046BDE81040FFF781BF004870479D
:100350000000002001491820ABBEFEE72600020085
:1003600070470000B0B540F2B405C2F2000528782D
:10037000012818BFB0BD40F26404C2F20004204658
:1003800000F032FB0020287007A12046062200F072
:100390000BFC10B100F098FAB0BD05A000F09AF87F
:1003A00000F092FAB0BD00BF746573740D000000D8
:1003B0006A6F70612E0A000000F004FC4EF688504F
:1003C000CEF20000016841F4700101604FF000615D
:1003D00040F8801C7047000080B540F61040C4F221
:1003E0000000016821F001010160FFF7BBFF80BD43
:1003F00041F21040C4F20000016821F001010160E7
:1004000040F2E810C2F20000018801318AB2B2F570
:10041000C87218BF0A4602807047000080B543F6D4
:100420000000C4F20100C16909062AD540F2BC1ED1
:1004300040F2C013C2F2000EC2F20003DEF8002048
:100440001B689A4204D1016821F08001016018E024
:1004500040F2B703C2F200039A5C40F2B81C826219
:10046000C2F2000CDEF80020DCF80010531C013151
:10047000CEF80030FF2ACCF80010A4BF0021CEF83F
:100480000010C16989061CD5406A40F2B50240F2ED
:10049000B60CC2F20002C2F2000C10709CF80030E0
:1004A00040F26402C1B2C2F20002D054581C0D29BD
:1004B0008CF8000006D140F2B400C2F20000012125
:1004C000017080BDC0B2502838BF80BD00F0FCF97B
:1004D00080BD0000B0B50278F2B140F2C01140F228
:1004E000B70E40F2B8130130C2F20001C2F2000EA2
:1004F000C2F200034FF0000C0C681D680EF80420D7
:10050000621C0A606A1EFF2C1A60A8BFC1F800C0F6
:1005100010F8012B002AEFD143F60000C4F20100CD
:10052000016841F08001016040F2BC10C2F200009D
:100530000168B1F5807FA4BF00210160B0BD00005B
:1005400041F24C01C4F20201086840F00700086063
:100550000A68142042F40052C5F200000A60D0F884
:10056000F41241F48031C0F8F412002140F80C1C60
:1005700050F80C2C40F2144142F08052C4F60001B5
:1005800040F80C2C792200BF0B68013A83F4006319
:100590000B60F9D10A6822F400620A6050F80C1C62
:1005A00041F0004140F80C1C50F80C1C0029FBD411
:1005B00050F80C1C41F0010140F80C1C4FF0A04118
:1005C0000A68D207FCD050F8081C41F4005140F8EA
:1005D000081CC16941F00201C161C16941F04001DB
:1005E000C161C16941F4A041C161C16941F4001117
:1005F000C161016841F030010160016841F4C071DE
:100600000160016841F440610160016841F4C0414A
:100610000160016841F440310160016841F4C0119A
:100620000160016841F440010160016841F0C0616E
:100630000160016841F040510160416841F00601EC
:100640004160416841F030014160416841F4C0714E
:100650004160416841F440614160416841F4C041FA
:100660004160416841F440314160416841F4C0114A
:100670004160416841F440014160416841F0C0611E
:10068000416050F8081C41F4804140F8081C50F8C3
:10069000081C41F0030140F8081C50F80C1C41F004
:1006A000040140F80C1C704741F24C01C4F20201F5
:1006B000086840F0030008600A6840F2141042F431
:1006C0000052C5F200000A60D0F8F41141F4803104
:1006D000C0F8F411002140F80C1C50F80C2C40F22A
:1006E000144142F08052C4F6000140F80C2C7922EB
:1006F0000B68013A83F400630B60F9D10A6822F4B5
:1007000000620A6050F80C1C41F0004140F80C1CDB
:1007100050F80C1C0029FBD450F80C1C41F00101CE
:1007200040F80C1C50F8141CC907FBD050F8081CEA
:1007300041F4005140F8081CC16941F00301C16156
:10074000C16941F0C001C161C16941F48041C16129
:10075000C16941F44011C161C16941F05061C16199
:10076000016841F030010160016841F4C07101602D
:10077000016841F440610160016841F4C0410160D9
:10078000016841F440310160016841F4C011016029
:10079000016841F440010160016841F0C0610160FD
:1007A000016841F040510160416841F0060141603B
:1007B000416841F030014160416841F4C0714160DD
:1007C000416841F440614160416841F4C041416089
:1007D000416841F440314160416841F4C0114160D9
:1007E000416841F440014160416841F0C0614160AD
:1007F00050F8081C41F4804140F8081C50F8081CCF
:1008000041F0030140F8081C50F80C1C41F00401B1
:1008100040F80C1C7047000041F24C01C4F2020188
:10082000086840F0020008600A6840F2084042F49C
:100830008042C5F200000A60D0F8001341F4803114
:10084000C0F8001300210160026840F2144142F038
:100850008052C4F600010260792200BF0B68013AA1
:1008600083F400630B60F9D10A6822F400620A6025
:10087000016841F00041016001680029FCD4016871
:1008800041F00101016000BF50F8081CC907FBD00E
:10089000416841F400514160816A8162816A41F09E
:1008A00040018162C16841F03001C160416841F49A
:1008B00080414160416841F003014160016841F0BD
:1008C0000401016070470000B0B540F2B60440F288
:1008D0006400C2F200040025C2F20000502125701D
:1008E000FFF7DCFC40F2D410C2F200002570056076
:1008F000B0BD000041F24800C4F20200016840F2BD
:10090000D81241F0010101600168C2F2000241F019
:100910000401016008204021C4F20200C5F2000178
:100920008160C26003224260026842F020020260DD
:10093000026842F080020260026842F48072026043
:10094000026842F480620260D0F8F82742F00502A3
:10095000C0F8F827026842F00102026001F58072D7
:10096000C26140F2E012C2F200020262042282611D
:10097000426901F5806142F020024261426942F021
:1009800080024261426942F480724261426942F4EB
:100990008062426140F60402C4F20202136843F02E
:1009A00024031360436943F001034361016340F290
:1009B000DE11C2F2000141630121C162816A41F08E
:1009C00020018162816A41F480718162816A41F40F
:1009D00080618162516841F025015160816A41F076
:1009E00001018162704700002DE9F04381B00446A7
:1009F000002600BFF0B2215C0136202902D04E282B
:100A0000F8D93DE0F0B2205C40F2D4180D28C2F2D3
:100A1000000809D100274FF00009F8B228F810901B
:100A2000012001B0BDE8F0834FF0000900270AE083
:100A300009EB890005EB4000A0F130090136F0B266
:100A4000205C0D28E9D0C5B2284600F0A5F8202D7D
:100A500008BF40F0010058B1202DE9D1F8B20137AC
:100A6000F9B2022928F8109002D24FF00009E5E708
:100A700040F6D450C0F60000FFF72CFDFFF724FF2E
:100A8000002001B0BDE8F08380B5FFF71DFF40F204
:100A9000BC10C2F200000021016040F2C010C2F29E
:100AA0000000016040F2B810C2F200004FF4807202
:100AB000026040F26000C2F20000018040F2E810E3
:100AC000C2F20000018080BD41F24C01C4F202017B
:100AD000086840F00800086040F20040C4F60000DA
:100AE000D0F8002822F02002C0F800280A6842F05E
:100AF00002020A60026842F488520260026822F42C
:100B000008520260426842F050024260C26822F419
:100B10004C52C260426922F050024261026822F4E3
:100B200040620260026842F480620260C26842F47D
:100B30008062C260426942F0200242610A6842F06B
:100B400004020A60D0F800144CF6FF7221F4404110
:100B5000C0F80014D0F80814CFF6C37241F4404135
:100B6000C0F80814D0F8001421F44031C0F8001483
:100B7000D0F8081441F44031C0F80814D0F800143B
:100B80001140C0F80014D0F8081441F4401141F4A9
:100B90004321C0F808147047A0F1300100200A2951
:100BA00038BF012070470000012ABCBF00207047F9
:100BB00010F801CB11F8013B013A9C451CBF012004
:100BC0007047F1E74EF68850CEF20000016841F41C
:100BD0007001016000F038F8FFF756FFFFF774FF6F
:100BE000FFF788FEFFF7ACFCFFF75EFDFFF714FE92
:100BF00000F070F840F2EC1449F27F6544F22406EC
:100C0000C2F20004C0F29805C4F201060027256074
:100C10003760206800F074F8306840F2D018C2F2F3
:100C20000008C8F80000256037603760206840F28F
:100C3000C411C2F2000100F093F83068C8F8000057
:100C4000376000BFFEE7000042F20000C4F202007D
:100C5000016841F00401016001684907FCD541F2D7
:100C60000C00C4F2020050F80C1C41F4803140F832
:100C70000C1C00BF50F80C1C8903FBD5016841F027
:100C800003010160016821F480510160016841F4B1
:100C900000510160016841F08071016050F80C1C46
:100CA00041F0807140F80C1C50F80C1C8901FBD5F8
:100CB00050F8041C41F0030140F8041C50F8041CD7
:100CC00011F00C0FFAD050F8041C41F0A00140F8CC
:100CD000041C704741F26000C4F2020001684FF644
:100CE000E85241F48031016044F20000C4F2010096
:100CF0000021016101218162C26201607047000030
:100D000010B530B340F2C41CC2F2000C40F6AC5E29
:100D10000022C0F6000E614606E000BF013230330B
:100D20000A2A01F8013B0BD05EF822400023A042C2
:100D3000F4D300BF001BA04203F10103FAD2EDE798
:100D400000200870ACF1010010F8011F3029FBD021
:100D500010BD40F2C410C2F200003021018010BD6D
:100D600000224CF6CD4C01F80A2FCCF6CC4C00BF3B
:100D7000A0FB0C32D20802EB8203A0EB430343F04A
:100D8000300301F8013D09281046F1D808467047A4
:100D9000F1EE100A4FF6FF71C0F2C03120EA0100F7
:100DA00040F04070E1EE100A7047000000CA9A3B24
:100DB00000E1F5058096980040420F00A0860100F2
:100DC00010270000E8030000640000000A00000093
:100DD0000100000052656164206572726F72210D1E
:100DE00000000000F40D000800000020F0070000E3
:040DF00014020008E1
:04000005080003B933
:00000001FF
